{
  "_format": "hh-sol-artifact-1",
  "contractName": "blocklotto",
  "sourceName": "contracts/blocklotto.sol",
  "abi": [
    {
      "inputs": [],
      "stateMutability": "nonpayable",
      "type": "constructor"
    },
    {
      "inputs": [],
      "name": "cashout",
      "outputs": [],
      "stateMutability": "payable",
      "type": "function"
    },
    {
      "inputs": [],
      "name": "enter",
      "outputs": [],
      "stateMutability": "payable",
      "type": "function"
    },
    {
      "inputs": [],
      "name": "getPlayers",
      "outputs": [
        {
          "internalType": "address[]",
          "name": "",
          "type": "address[]"
        }
      ],
      "stateMutability": "view",
      "type": "function"
    },
    {
      "inputs": [],
      "name": "owner",
      "outputs": [
        {
          "internalType": "address",
          "name": "",
          "type": "address"
        }
      ],
      "stateMutability": "view",
      "type": "function"
    },
    {
      "inputs": [
        {
          "internalType": "uint256",
          "name": "",
          "type": "uint256"
        }
      ],
      "name": "players",
      "outputs": [
        {
          "internalType": "address",
          "name": "",
          "type": "address"
        }
      ],
      "stateMutability": "view",
      "type": "function"
    }
  ],
  "bytecode": "0x608060405234801561001057600080fd5b50336000806101000a81548173ffffffffffffffffffffffffffffffffffffffff021916908373ffffffffffffffffffffffffffffffffffffffff160217905550610a1b806100606000396000f3fe60806040526004361061004a5760003560e01c806384054d3d1461004f5780638b5b9ccc146100595780638da5cb5b14610084578063e97dcb62146100af578063f71d96cb146100b9575b600080fd5b6100576100f6565b005b34801561006557600080fd5b5061006e6102d4565b60405161007b9190610772565b60405180910390f35b34801561009057600080fd5b50610099610362565b6040516100a69190610757565b60405180910390f35b6100b7610386565b005b3480156100c557600080fd5b506100e060048036038101906100db9190610567565b610434565b6040516100ed9190610757565b60405180910390f35b60008054906101000a900473ffffffffffffffffffffffffffffffffffffffff1673ffffffffffffffffffffffffffffffffffffffff163373ffffffffffffffffffffffffffffffffffffffff1614610184576040517f08c379a000000000000000000000000000000000000000000000000000000000815260040161017b906107b4565b60405180910390fd5b6000600180549050610194610473565b61019e91906108d6565b9050600181815481106101da577f4e487b7100000000000000000000000000000000000000000000000000000000600052603260045260246000fd5b9060005260206000200160009054906101000a900473ffffffffffffffffffffffffffffffffffffffff1673ffffffffffffffffffffffffffffffffffffffff166108fc479081150290604051600060405180830381858888f1935050505015801561024a573d6000803e3d6000fd5b50600067ffffffffffffffff81111561028c577f4e487b7100000000000000000000000000000000000000000000000000000000600052604160045260246000fd5b6040519080825280602002602001820160405280156102ba5781602001602082028036833780820191505090505b50600190805190602001906102d09291906104ab565b5050565b6060600180548060200260200160405190810160405280929190818152602001828054801561035857602002820191906000526020600020905b8160009054906101000a900473ffffffffffffffffffffffffffffffffffffffff1673ffffffffffffffffffffffffffffffffffffffff168152602001906001019080831161030e575b5050505050905090565b60008054906101000a900473ffffffffffffffffffffffffffffffffffffffff1681565b66b1a2bc2ec5000034146103cf576040517f08c379a00000000000000000000000000000000000000000000000000000000081526004016103c690610794565b60405180910390fd5b6001339080600181540180825580915050600190039060005260206000200160009091909190916101000a81548173ffffffffffffffffffffffffffffffffffffffff021916908373ffffffffffffffffffffffffffffffffffffffff160217905550565b6001818154811061044457600080fd5b906000526020600020016000915054906101000a900473ffffffffffffffffffffffffffffffffffffffff1681565b6000444243600160405160200161048d949392919061070d565b6040516020818303038152906040528051906020012060001c905090565b828054828255906000526020600020908101928215610524579160200282015b828111156105235782518260006101000a81548173ffffffffffffffffffffffffffffffffffffffff021916908373ffffffffffffffffffffffffffffffffffffffff160217905550916020019190600101906104cb565b5b5090506105319190610535565b5090565b5b8082111561054e576000816000905550600101610536565b5090565b600081359050610561816109ce565b92915050565b60006020828403121561057957600080fd5b600061058784828501610552565b91505092915050565b600061059c83836105c0565b60208301905092915050565b60006105b483836105de565b60208301905092915050565b6105c981610876565b82525050565b6105d881610876565b82525050565b6105e781610876565b82525050565b60006105f8826107f9565b6106028185610829565b935061060d836107d4565b8060005b8381101561063e5781516106258882610590565b97506106308361080f565b925050600181019050610611565b5085935050505092915050565b600061065682610804565b610660818561083a565b935061066b836107e4565b8060005b838110156106a35761068082610936565b61068a88826105a8565b97506106958361081c565b92505060018101905061066f565b5085935050505092915050565b60006106bd601983610845565b91506106c882610956565b602082019050919050565b60006106e0602283610845565b91506106eb8261097f565b604082019050919050565b610707610702826108a8565b6108cc565b82525050565b600061071982876106f6565b60208201915061072982866106f6565b60208201915061073982856106f6565b602082019150610749828461064b565b915081905095945050505050565b600060208201905061076c60008301846105cf565b92915050565b6000602082019050818103600083015261078c81846105ed565b905092915050565b600060208201905081810360008301526107ad816106b0565b9050919050565b600060208201905081810360008301526107cd816106d3565b9050919050565b6000819050602082019050919050565b60008190508160005260206000209050919050565b600081519050919050565b600081549050919050565b6000602082019050919050565b6000600182019050919050565b600082825260208201905092915050565b600081905092915050565b600082825260208201905092915050565b600073ffffffffffffffffffffffffffffffffffffffff82169050919050565b600061088182610888565b9050919050565b600073ffffffffffffffffffffffffffffffffffffffff82169050919050565b6000819050919050565b60006108c56108c083610949565b610856565b9050919050565b6000819050919050565b60006108e1826108a8565b91506108ec836108a8565b9250826108fc576108fb610907565b5b828206905092915050565b7f4e487b7100000000000000000000000000000000000000000000000000000000600052601260045260246000fd5b600061094282546108b2565b9050919050565b60008160001c9050919050565b7f616d6f756e74206d75737420626520302e303520657468657200000000000000600082015250565b7f6f6e6c7920626f737365732063616e2063616c6c20746869732066756e63746960008201527f6f6e000000000000000000000000000000000000000000000000000000000000602082015250565b6109d7816108a8565b81146109e257600080fd5b5056fea2646970667358221220c96224c280ab57c79fa5f1a2a813979b53e7b4f19017494f5c2eac2a84f7f8d864736f6c63430008040033",
  "linkReferences": {},
  "deployedLinkReferences": {}
}